S010000061746D65676133322E7372656340
S11300000C944C010C9469010C9469010C946901E1
S11300100C9469010C9469010C9469010C946901B4
S11300200C9469010C9469010C9469010C946901A4
S11300300C9469010C9469010C9469010C94690194
S11300400C9469010C9469010C9469010C9471037A
S11300500C946901A0019E019E019E019E019E01D6
S11300609E019E019E019E019E019E019E019E0194
S11300709E019E019E019E019E019E019E019E0184
S11300809E019E019C019E019E019E019E019E0176
S11300909E019E01A0019E019E019E019E019E0162
S11300A09E019E019C019E019E019E019E019E0156
S11300B09E019E01A0019E019E019E019E019E0142
S11300C09E019E01A0019E019E019E019E019E0132
S11300D09E019E019C019E019E019E019E019E0126
S11300E09E019E01A0019E019E019E019E019E0112
S11300F09E019E019C019E019E019E019E019E0106
S11301009E019E01A0014E04520452045204520462
S11301105204520452048E035204520452045204F0
S11301205204520452048E035204520452045204E0
S113013052045204520494035204520452045204CA
S1130140520452045204AB035204520452045204A3
S113015052045204520494035204520452045204AA
S1130160520452045204B10352045204520452047D
S1130170520452045204B703520452045204520467
S1130180520452045204C803520452045204520446
S1130190520452045204DF0352045204520452041F
S11301A0520452045204BD03520452045204520431
S11301B0520452045204D40352045204520452040A
S11301C0520452045204E2035204520452045204EC
S11301D0520452045204E2035204520452045204DC
S11301E0520452045204E2035204520452045204CC
S11301F0520452045204E2035204520452045204BC
S1130200520452045204EA035204520452045204A3
S11302105204520452041A04520452045204520462
S1130220520452045204EA03520452045204520483
S11302305204520452041A04520452045204520442
S1130240520452045204FF0352045204520452044E
S11302505204520452041D0452045204520452041F
S11302605204520452041D0452045204520452040F
S113027052045204520432045204520452045204EA
S113028052045204520449045204520452045204C3
S1130290520452045204490411241FBECFE5D8E08D
S11302A0DEBFCDBF10E0A0E6B0E0E6EDF8E002C0AE
S11302B005900D92AA38B107D9F720E0AAE8B0E07A
S11302C001C01D92A63FB207E1F70E941F030C94E0
S11302D069040C94000084B38C7F84BB85B38C7F49
S11302E085BB11B810B884E086BF089584EA86BF40
S11302F006B607FEFDCF81B1887F883011F08031CA
S113030011F480E0089581E0089584E986BF06B67B
S113031004FCFDCF089583B984E886BF06B607FEC2
S1130320FDCF81B1887F90E08935910538F4FC01D7
S1130330E65DFF4F0C94630480E0089582E0089525
S113034081E0089584EC86BF06B607FEFDCF83B135
S11303500895982F92959F70990F292F220F220F9D
S1130360920F8F70890F08956F927F928F929F9250
S1130370AF92BF92CF92DF92EF92FF920F931F93AF
S1130380CF93DF934C015B01EA0139010E947601AE
S113039080ED0E948B0180E00E948B010E94850108
S11303A00E94760181ED0E948B010E94A2018F7749
S11303B00E94A901F40180830E94A2010E94A90164
S11303C0F50180830E94A2018F730E94A901888392
S11303D00E94A2010E94A901F30180830E94A2014C
S11303E00E94A901F80180830E94A2010E94A90130
S11303F0F70180830E94A2010E94A901F601808373
S1130400DF91CF911F910F91FF90EF90DF90CF90EC
S1130410BF90AF909F908F907F906F9008958FEFD3
S113042087BB84BB8AB3886F8ABB8BB387788BBB4B
S1130430D79A0895CF93DF93CDB7DEB72A970FB637
S1130440F894DEBF0FBECDBF9AE0E0E6F0E0DE0137
S1130450119601900D929A95E1F79DEC899F212DBB
S11304601124269526952695322F330F432F440FBA
S1130470440F340F831BE1E0F0E0EC0FFD1FE80FA5
S1130480F11D808188BBDC9ADC98E1E0F0E0EC0FA0
S1130490FD1FE20FF11D808188BBDB9ADB98699F09
S11304A0812D1124869586958695982F990F292F4D
S11304B0220F220F920F691BE1E0F0E0EC0FFD1F09
S11304C0E60FF11D908198BBDE9ADE98E1E0F0E042
S11304D0EC0FFD1FE80FF11D808188BBDD9ADD98CC
S11304E02A960FB6F894DEBF0FBECDBFDF91CF9131
S11304F008958FB9779BFECF0895CF93C62F0E949E
S113050079028C2F0E947902CF9108950F931F9343
S1130510CF93DF93C82F162F042FC2988823E9F0B6
S1130520D0E060E070E080E090E00E947D02DF5F58
S1130530DC13F7CF602F70E0812F90E00E947D02E2
S1130540C33048F460E070E080E090E00E947D02F7
S1130550CF5FC330B8F3C29A07C0642F70E0812F15
S113056090E00E947D02EECFDF91CF911F910F9119
S113057008951F93CF93DF93D0E011E00BC040E0C8
S11305806C2F8D2F0E948602CF5FC930C1F7DF5FC9
S1130590D43011F0C12FF3CFDF91CF911F91089583
S11305A0CF9387B3846A87BBC29A8DB180658DB9B6
S11305B0C0E047E06AE08C2F0E948602CF5FC4301F
S11305C0C1F7CF910895AF92BF92DF92EF921F933C
S11305D0CF93DF93809B25C00F2EFAE6AF2EF0E079
S11305E0BF2EF02DE12CD12C0FC049911F5F612F3C
S11305F08E2D0E9486021830C1F7E39428E0A20EE3
S1130600B11C84E0E81619F0E5011D2DEECF9FE33F
S113061022E48FE0915020408040E1F700C00000C8
S113062002C00E94B902DF91CF911F91EF90DF9039
S1130630BF90AF9008956E988FEF87BB0895CF93C6
S1130640DF9300D01F92CDB7DEB70E94D0020E9484
S11306506B010E940F0210E040E06FE0812F0E94C6
S1130660860247E06BE0812F0E94860241E06CE045
S1130670812F0E9486021F5F143071F70E94B90215
S11306800E941B03C12CD12CE12CF12C00E010E0C2
S113069020E030E0AE014D5F5F4FBE016E5F7F4FE3
S11306A0CE0101960E94B40149816A818B810E9426
S11306B01A020E94D0020E94E30287EA91E601979F
S11306C0F1F700C00000DCCF85ED86BF06B604FC60
S11306D0FDCF1092F500089585EC86BF1092F500C9
S11306E008951F920F920FB60F9211242F933F93E8
S11306F04F935F936F937F938F939F93AF93BF9326
S1130700EF93FF9381B1887F90E0893C910508F0D5
S1130710C9C0FC01ED57FF4F0C9463048091F400B1
S113072083B985EC86BFBEC09091CF008091CE0086
S1130730981770F4E091CF0081E08E0F8093CF0082
S1130740F0E0E053FF4F808183B985EC86BFAAC0F7
S11307500E946403A7C080E280938A000E9464031D
S1130760A1C080E380938A000E9464039BC088E355
S113077080938A000E946C0395C0E091CF0081E0D1
S11307808E0F8093CF0083B1F0E0E053FF4F80835E
S11307909091CF008091CE00981718F485EC86BF15
S11307A081C085E886BF7EC0E091CF0081E08E0FD6
S11307B08093CF0083B1F0E0E053FF4F80830E9429
S11307C0640370C083E08093F50010928B0085EC85
S11307D086BF68C080918B00803270F4E0918B00FA
S11307E081E08E0F80938B0083B1F0E0E457FF4FDC
S11307F0808385EC86BF56C085E886BF53C0809150
S11308008B00803230F4E0918B00F0E0E457FF4F2E
S113081010820E94640360918B0070E0E091F0000C
S1130820F091F1008CE890E0099510928B000E9401
S11308306C0338C085E886BF35C084E08093F5003A
S11308401092AD001092AC00E091F200F091F30030
S113085009958091AC00811105C081E08093AC00C2
S11308601092AE00E091AD0081E08E0F8093AD0058
S1130870F0E0E255FF4F808183B99091AD00809103
S1130880AC00981718F485EC86BF0CC085E886BFC9
S113089009C085EC86BF1092F50004C010928A004E
S11308A00E946403FF91EF91BF91AF919F918F914B
S11308B07F916F915F914F913F912F910F900FBE58
S11308C00F901F901895EE0FFF1F0590F491E02DE7
S10908D00994F894FFCF27
S11308D63F065B4F666D7D077F6F41414141222292
S11308E61408010202728AFA8271C72808080F08DE
S10D08F628C83CA2A2A2A2A2A2BC40
S9030000FC
